:020000040800F2
:1000000000100020510700089B0700089D0700080A
:1000100000000000000000000000000000000000E0
:100020000000000000000000000000009F07000822
:100030000000000000000000A1070008A30700085E
:10004000A7070008A9070008AB070008AD070008CC
:10005000AF070008B1070008B3070008B50700089C
:10006000B7070008B9070008BB070008BD0700086C
:10007000BF070008C1070008C3070008C50700083C
:10008000C7070008C9070008CB070008CD0700080C
:10009000CF070008D1070008D3070008D5070008DC
:1000A000D7070008D9070008DB070008DD070008AC
:1000B000DF070008E1070008E3070008E50700087C
:1000C000E707000810B5064C2378002B07D1054B35
:1000D000002B02D0044800E000BF0123237010BDB4
:1000E00068000020000000007C0A0008084B10B5E2
:1000F000002B03D00749084800E000BF0748036809
:10010000002B00D110BD064B002BFBD09847F9E720
:10011000000000006C0000207C0A0008680000203D
:1001200000000000164B002B00D1144B9D464022CE
:1001300092029A1A924600218B460F461348144A9F
:10014000121A00F081FC0F4B002B00D098470E4B89
:10015000002B00D098470020002104000D000D481E
:10016000002802D00C4800E000BF00F047FC20004F
:10017000290000F0E5FA00F02BFCC0460000080062
:1001800000100020000000000000000068000020B7
:1001900084000020000000000000000080B586B050
:1001A00000AF7860396000237B6100233B6100234E
:1001B000FB6000237B6181E001227B699A40130090
:1001C0003B613B681B683A691340FB60FA683B6916
:1001D0009A4270D13B681B79012B03D03B681B7995
:1001E000022B38D17B689B687A69520003219140C9
:1001F0000A00D2431A407B689A607B689A683B6821
:100200005B7919007B695B0099400B001A437B689E
:100210009A607B689B889BB27A691204120C012158
:1002200091400A0092B2D24392B213409AB27B68D4
:100230009A807B689B889BB21AB23B689B791900B5
:100240007B691B041B0C99400B001BB213431BB2B0
:100250009AB27B689A807B681B687A695200032196
:1002600091400A00D2431A407B681A607B681A6882
:100270003B681B7919007B695B0099400B001A43AE
:100280007B681A607B68DB687A691204120C520082
:10029000032191400A00D2431A407B68DA607B68F0
:1002A000DA683B68DB7919007B695B0099400B00D9
:1002B0001A437B68DA607B6901337B617B690F2BB2
:1002C00000D879E7C046BD4606B080BD80B582B093
:1002D00000AF78600A00BB1C1A80BB1C1A887B68C0
:1002E0009A61C046BD4602B080BDC04680B582B0AE
:1002F00000AF78600A00BB1C1A807B68BA1C1288A9
:100300001A85C046BD4602B080BDC04680B584B0E7
:1003100000AF786008001100BB1C021C1A807B1C17
:100320000A1C1A700023FB600023BB607B1C1A7838
:10033000BB1C1B8807210B409B009A401300FB60ED
:10034000BB1C1B88DB089BB21800BB1C1B88DB088E
:100350009BB21A007B6808329200D358BA1C1288EC
:1003600007210A4092000F2191400A00D2431A400F
:1003700011007B68020008329200D150BB1C1B8820
:10038000DB089BB21A007B6808329200D258FB68E7
:100390001343BB60BB1C1B88DB089BB21A007B6845
:1003A00008329200B968D150C046BD4604B080BD45
:1003B00080B582B000AF78600A00FB1C1A70FB1C8D
:1003C0001B78002B06D0094B084A51697A680A430A
:1003D0005A6106E0054B054A52697968C9430A40EB
:1003E0005A61C046BD4602B080BDC0460010024002
:1003F00080B582B000AF78600A00FB1C1A70FB1C4D
:100400001B78002B06D0094B084A91697A680A4389
:100410009A6106E0054B054A92697968C9430A402A
:100420009A61C046BD4602B080BDC0460010024081
:1004300080B584B000AF786039600E23FB180022CD
:100440001A800E23FB187A6812881A800E23FB1874
:100450000E22BA181188C12292010A401A803B6804
:100460001A883B68DB8913439AB23B68DB881343E5
:100470009AB23B681B8913439AB23B685B8913436A
:100480009AB23B689B89134399B20E23FB180E2244
:10049000BA1812880A431A807B680E22BA1812888A
:1004A0001A800E23FB187A6892881A800E23FB1894
:1004B0000E22BA1812881E490A401A803B68998891
:1004C0000E23FB180E22BA1812880A431A807B6882
:1004D0000E22BA1812889A803B681A8A7B681A82A0
:1004E0000E23FB187A6812881A800E23FB180E223E
:1004F000BA18128804218A431A803B6859880E234F
:10050000FB180E22BA1812880A431A807B680E2242
:10051000BA1812881A807B689B8B9BB2054A1340DD
:100520009AB27B689A83C046BD4604B080BDC0467F
:10053000FFF0FFFFFFF7FFFF80B582B000AF7860EC
:100540000A00FB1C1A70FB1C1B78002B08D07B6870
:100550001B889BB2402213439AB27B681A8007E043
:100560007B681B889BB2402293439AB27B681A80B7
:10057000C046BD4602B080BD80B582B000AF786095
:100580000A00BB1C1A807B68BA1C12889A81C0467C
:10059000BD4602B080BDC04680B584B000AF786073
:1005A0000A00BB1C1A800F23FB1800221A707B68FC
:1005B0001B899BB2BA1C128813409BB2002B04D03B
:1005C0000F23FB1801221A7003E00F23FB180022EF
:1005D0001A700F23FB181B781800BD4604B080BDAD
:1005E00080B588B000AF80239B0201211800FFF77F
:1005F000DFFE9023DB05002205211800FFF786FEB1
:100600009023DB05002206211800FFF77FFE9023D0
:10061000DB05002207211800FFF778FE1823FB18DE
:1006200002221A711823FB1800229A711823FB1852
:10063000E0221A601823FB180022DA711823FB1835
:1006400003225A711823FA189023DB0511001800B1
:10065000FFF7A4FD1823FB1801221A711823FB18B9
:1006600000229A711823FB1810221A601823FB1815
:100670000022DA711823FB1803225A711823FA1882
:100680009023DB0511001800FFF788FD80235B0134
:1006900001211800FFF7ACFE3B1D00229A813B1D93
:1006A00000221A813B1D0022DA803B1DE022D2008D
:1006B0009A803B1D00221A803B1D0022DA813B1DDF
:1006C000802292005A813B1D822252005A803B1D9B
:1006D000064A19001000FFF7ABFE044B0121180079
:1006E000FFF72AFFC046BD4608B080BD003001407C
:1006F00080B582B000AF0200BB1D1A809023DB05DD
:1007000010211800FFF7F2FDBB1D1B880B4A1900D2
:100710001000FFF731FFC046084B80211800FFF79B
:100720003BFF0300012BF7D09023DB0510211800BD
:10073000FFF7CCFDC046BD4602B080BD0030014091
:1007400080B500AFFFF74CFFF020FFF7D1FFFEE7C9
:100750000749084A084B9B1A05DD00240859105127
:1007600004349C42FADB05488047054800470000F6
:10077000880A00080000002068000020F107000837
:10078000250100081849194A002301E00B600431D3
:100790009142FBD3FFF7D4FFFEE7FEE7FEE7FEE75B
:1007A000FEE7FEE7FEE7FEE7FEE7FEE7FEE7FEE721
:1007B000FEE7FEE7FEE7FEE7FEE7FEE7FEE7FEE711
:1007C000FEE7FEE7FEE7FEE7FEE7FEE7FEE7FEE701
:1007D000FEE7FEE7FEE7FEE7FEE7FEE7FEE7FEE7F1
:1007E000FEE7FEE7FEE7FEE7680000208400002049
:1007F00080B500AF1B4B1B4A126801210A431A60E7
:10080000184B184A526818490A405A60154B154A45
:10081000126816490A401A60124B124A12681449AB
:100820000A401A600F4B0F4A526812490A405A6038
:100830000C4B0C4AD26A0F218A43DA62094B094AEF
:10084000126B0D490A401A63064B064A526B01218E
:100850008A435A63034B00229A6000F00FF8C046A7
:10086000BD4680BD001002400CB8FFF8FFFFF6FE49
:10087000FFFFFBFFFFFFC0FFACFEFFFF80B582B0B4
:1008800000AF00237B6000233B604E4B4D4A126853
:10089000802149020A431A604A4B1A6880239B024E
:1008A00013403B607B6801337B603B68002B04D1C5
:1008B0007A68A023DB019A42EED1424B1A6880236A
:1008C0009B02134002D001233B6001E000233B6008
:1008D0003B68012B39D13C4B11221A60394B394A04
:1008E00052685A60374B374A52685A60354B354A1E
:1008F000526836490A405A60324B324A526888215F
:1009000049030A435A602F4B2E4A1268802149043A
:100910000A431A60C0462B4B1A6880239B0413407D
:10092000F9D0284B274A526803218A435A60254B45
:10093000244A526802210A435A60C046214B5B6830
:100940000C221340082BF9D138E01F4B11221A60FA
:100950001C4B1C4A52685A601A4B1A4A52685A6019
:10096000184B184A526819490A405A60154B154AE3
:100970005268A02189030A435A60124B114A126837
:10098000802149040A431A60C0460E4B1A6880232E
:100990009B041340F9D00B4B0A4A526803218A4347
:1009A0005A60084B074A526802210A435A60C046FF
:1009B000044B5B680C221340082BF9D1C046BD469E
:1009C00002B080BD0010024000200240FF7FC0FF47
:1009D000084B10B50400002B02D0002100E000BF3E
:1009E000054B1868836A002B00D09847200000F060
:1009F00033F8C04600000000780A00080E4B70B5BE
:100A000000251E000D4CE41AA410A54204D0AB0032
:100A1000F35898470135F8E700F020F8084B002517
:100A20001E00084CE41AA410A54204D0AB00F358F1
:100A300098470135F8E770BD600000206000002095
:100A4000600000206400002003008218934202D05E
:100A500019700133FAE77047FEE70000F8B5C046A9
:100A6000F8BC08BC9E467047F8B5C046F8BC08BC48
:100A70009E46704743000000000000200000000078
:080A8000A4F6FF7F0100000055
:100A8800000000000000000000000000000000005E
:100A9800000000000000000000000000000000004E
:100AA800740A0008000000000000000000000000B8
:100AB800000000000000000000000000000000002E
:100AC800000000000000000000000000000000001E
:100AD800000000000000000000000000000000000E
:080AE800ED000008C500000844
:0400000508000000EF
:00000001FF
